{
  "_format": "hh-sol-artifact-1",
  "contractName": "BridgeB",
  "sourceName": "contracts/BridgeB.sol",
  "abi": [
    {
      "inputs": [
        {
          "internalType": "address",
          "name": "_token",
          "type": "address"
        }
      ],
      "stateMutability": "nonpayable",
      "type": "constructor"
    },
    {
      "inputs": [],
      "name": "ECDSAInvalidSignature",
      "type": "error"
    },
    {
      "inputs": [
        {
          "internalType": "uint256",
          "name": "length",
          "type": "uint256"
        }
      ],
      "name": "ECDSAInvalidSignatureLength",
      "type": "error"
    },
    {
      "inputs": [
        {
          "internalType": "bytes32",
          "name": "s",
          "type": "bytes32"
        }
      ],
      "name": "ECDSAInvalidSignatureS",
      "type": "error"
    },
    {
      "inputs": [
        {
          "internalType": "address",
          "name": "owner",
          "type": "address"
        }
      ],
      "name": "OwnableInvalidOwner",
      "type": "error"
    },
    {
      "inputs": [
        {
          "internalType": "address",
          "name": "account",
          "type": "address"
        }
      ],
      "name": "OwnableUnauthorizedAccount",
      "type": "error"
    },
    {
      "anonymous": false,
      "inputs": [
        {
          "indexed": true,
          "internalType": "address",
          "name": "previousOwner",
          "type": "address"
        },
        {
          "indexed": true,
          "internalType": "address",
          "name": "newOwner",
          "type": "address"
        }
      ],
      "name": "OwnershipTransferred",
      "type": "event"
    },
    {
      "anonymous": false,
      "inputs": [
        {
          "indexed": false,
          "internalType": "address",
          "name": "recipient",
          "type": "address"
        },
        {
          "indexed": false,
          "internalType": "uint256",
          "name": "amount",
          "type": "uint256"
        },
        {
          "indexed": false,
          "internalType": "uint256",
          "name": "nonce",
          "type": "uint256"
        }
      ],
      "name": "TokensReleased",
      "type": "event"
    },
    {
      "inputs": [],
      "name": "owner",
      "outputs": [
        {
          "internalType": "address",
          "name": "",
          "type": "address"
        }
      ],
      "stateMutability": "view",
      "type": "function"
    },
    {
      "inputs": [
        {
          "internalType": "uint256",
          "name": "",
          "type": "uint256"
        }
      ],
      "name": "processedNonces",
      "outputs": [
        {
          "internalType": "bool",
          "name": "",
          "type": "bool"
        }
      ],
      "stateMutability": "view",
      "type": "function"
    },
    {
      "inputs": [],
      "name": "relayer",
      "outputs": [
        {
          "internalType": "address",
          "name": "",
          "type": "address"
        }
      ],
      "stateMutability": "view",
      "type": "function"
    },
    {
      "inputs": [
        {
          "internalType": "address",
          "name": "recipient",
          "type": "address"
        },
        {
          "internalType": "uint256",
          "name": "amount",
          "type": "uint256"
        },
        {
          "internalType": "uint256",
          "name": "nonce",
          "type": "uint256"
        },
        {
          "internalType": "bytes",
          "name": "signature",
          "type": "bytes"
        }
      ],
      "name": "releaseTokens",
      "outputs": [],
      "stateMutability": "nonpayable",
      "type": "function"
    },
    {
      "inputs": [],
      "name": "renounceOwnership",
      "outputs": [],
      "stateMutability": "nonpayable",
      "type": "function"
    },
    {
      "inputs": [
        {
          "internalType": "address",
          "name": "_relayer",
          "type": "address"
        }
      ],
      "name": "setRelayer",
      "outputs": [],
      "stateMutability": "nonpayable",
      "type": "function"
    },
    {
      "inputs": [],
      "name": "token",
      "outputs": [
        {
          "internalType": "contract SuperTokenB",
          "name": "",
          "type": "address"
        }
      ],
      "stateMutability": "view",
      "type": "function"
    },
    {
      "inputs": [
        {
          "internalType": "address",
          "name": "newOwner",
          "type": "address"
        }
      ],
      "name": "transferOwnership",
      "outputs": [],
      "stateMutability": "nonpayable",
      "type": "function"
    }
  ],
  "bytecode": "0x608060405234801561001057600080fd5b5060405161124638038061124683398181016040528101906100329190610223565b33600073ffffffffffffffffffffffffffffffffffffffff168173ffffffffffffffffffffffffffffffffffffffff16036100a55760006040517f1e4fbdf700000000000000000000000000000000000000000000000000000000815260040161009c919061025f565b60405180910390fd5b6100b4816100fc60201b60201c565b5080600160006101000a81548173ffffffffffffffffffffffffffffffffffffffff021916908373ffffffffffffffffffffffffffffffffffffffff1602179055505061027a565b60008060009054906101000a900473ffffffffffffffffffffffffffffffffffffffff169050816000806101000a81548173ffffffffffffffffffffffffffffffffffffffff021916908373ffffffffffffffffffffffffffffffffffffffff1602179055508173ffffffffffffffffffffffffffffffffffffffff168173ffffffffffffffffffffffffffffffffffffffff167f8be0079c531659141344cd1fd0a4f28419497f9722a3daafe3b4186f6b6457e060405160405180910390a35050565b600080fd5b600073ffffffffffffffffffffffffffffffffffffffff82169050919050565b60006101f0826101c5565b9050919050565b610200816101e5565b811461020b57600080fd5b50565b60008151905061021d816101f7565b92915050565b600060208284031215610239576102386101c0565b5b60006102478482850161020e565b91505092915050565b610259816101e5565b82525050565b60006020820190506102746000830184610250565b92915050565b610fbd806102896000396000f3fe608060405234801561001057600080fd5b50600436106100885760003560e01c806391dae5191161005b57806391dae519146100ef578063ef6305871461011f578063f2fde38b1461013b578063fc0c546a1461015757610088565b80636548e9bc1461008d578063715018a6146100a95780638406c079146100b35780638da5cb5b146100d1575b600080fd5b6100a760048036038101906100a29190610a42565b610175565b005b6100b16101c1565b005b6100bb6101d5565b6040516100c89190610a7e565b60405180910390f35b6100d96101fb565b6040516100e69190610a7e565b60405180910390f35b61010960048036038101906101049190610acf565b610224565b6040516101169190610b17565b60405180910390f35b61013960048036038101906101349190610b97565b610244565b005b61015560048036038101906101509190610a42565b6104c5565b005b61015f61054b565b60405161016c9190610c7e565b60405180910390f35b61017d610571565b80600260006101000a81548173ffffffffffffffffffffffffffffffffffffffff021916908373ffffffffffffffffffffffffffffffffffffffff16021790555050565b6101c9610571565b6101d360006105f8565b565b600260009054906101000a900473ffffffffffffffffffffffffffffffffffffffff1681565b60008060009054906101000a900473ffffffffffffffffffffffffffffffffffffffff16905090565b60036020528060005260406000206000915054906101000a900460ff1681565b6003600084815260200190815260200160002060009054906101000a900460ff16156102a5576040517f08c379a000000000000000000000000000000000000000000000000000000000815260040161029c90610cf6565b60405180910390fd5b6000858585306040516020016102be9493929190610d7f565b60405160208183030381529060405280519060200120905060006102e1826106bc565b905060006103338286868080601f016020809104026020016040519081016040528093929190818152602001838380828437600081840152601f19601f820116905080830192505050505050506106f2565b9050600260009054906101000a900473ffffffffffffffffffffffffffffffffffffffff1673ffffffffffffffffffffffffffffffffffffffff168173ffffffffffffffffffffffffffffffffffffffff16146103c5576040517f08c379a00000000000000000000000000000000000000000000000000000000081526004016103bc90610e19565b60405180910390fd5b60016003600088815260200190815260200160002060006101000a81548160ff021916908315150217905550600160009054906101000a900473ffffffffffffffffffffffffffffffffffffffff1673ffffffffffffffffffffffffffffffffffffffff166340c10f1989896040518363ffffffff1660e01b815260040161044e929190610e48565b600060405180830381600087803b15801561046857600080fd5b505af115801561047c573d6000803e3d6000fd5b505050507fc5c52c2a9175470464d5ea4429889e7df2ea88630a3d32f4d0d3d2d4486562108888886040516104b393929190610e71565b60405180910390a15050505050505050565b6104cd610571565b600073ffffffffffffffffffffffffffffffffffffffff168173ffffffffffffffffffffffffffffffffffffffff160361053f5760006040517f1e4fbdf70000000000000000000000000000000000000000000000000000000081526004016105369190610a7e565b60405180910390fd5b610548816105f8565b50565b600160009054906101000a900473ffffffffffffffffffffffffffffffffffffffff1681565b61057961071e565b73ffffffffffffffffffffffffffffffffffffffff166105976101fb565b73ffffffffffffffffffffffffffffffffffffffff16146105f6576105ba61071e565b6040517f118cdaa70000000000000000000000000000000000000000000000000000000081526004016105ed9190610a7e565b60405180910390fd5b565b60008060009054906101000a900473ffffffffffffffffffffffffffffffffffffffff169050816000806101000a81548173ffffffffffffffffffffffffffffffffffffffff021916908373ffffffffffffffffffffffffffffffffffffffff1602179055508173ffffffffffffffffffffffffffffffffffffffff168173ffffffffffffffffffffffffffffffffffffffff167f8be0079c531659141344cd1fd0a4f28419497f9722a3daafe3b4186f6b6457e060405160405180910390a35050565b60007f19457468657265756d205369676e6564204d6573736167653a0a33320000000060005281601c52603c6000209050919050565b6000806000806107028686610726565b9250925092506107128282610782565b82935050505092915050565b600033905090565b6000806000604184510361076b5760008060006020870151925060408701519150606087015160001a905061075d888285856108e6565b95509550955050505061077b565b60006002855160001b9250925092505b9250925092565b6000600381111561079657610795610ea8565b5b8260038111156107a9576107a8610ea8565b5b03156108e257600160038111156107c3576107c2610ea8565b5b8260038111156107d6576107d5610ea8565b5b0361080d576040517ff645eedf00000000000000000000000000000000000000000000000000000000815260040160405180910390fd5b6002600381111561082157610820610ea8565b5b82600381111561083457610833610ea8565b5b03610879578060001c6040517ffce698f70000000000000000000000000000000000000000000000000000000081526004016108709190610ed7565b60405180910390fd5b60038081111561088c5761088b610ea8565b5b82600381111561089f5761089e610ea8565b5b036108e157806040517fd78bce0c0000000000000000000000000000000000000000000000000000000081526004016108d89190610f0b565b60405180910390fd5b5b5050565b60008060007f7fffffffffffffffffffffffffffffff5d576e7357a4501ddfe92f46681b20a08460001c11156109265760006003859250925092506109d0565b60006001888888886040516000815260200160405260405161094b9493929190610f42565b6020604051602081039080840390855afa15801561096d573d6000803e3d6000fd5b505050602060405103519050600073ffffffffffffffffffffffffffffffffffffffff168173ffffffffffffffffffffffffffffffffffffffff16036109c157600060016000801b935093509350506109d0565b8060008060001b935093509350505b9450945094915050565b600080fd5b600080fd5b600073ffffffffffffffffffffffffffffffffffffffff82169050919050565b6000610a0f826109e4565b9050919050565b610a1f81610a04565b8114610a2a57600080fd5b50565b600081359050610a3c81610a16565b92915050565b600060208284031215610a5857610a576109da565b5b6000610a6684828501610a2d565b91505092915050565b610a7881610a04565b82525050565b6000602082019050610a936000830184610a6f565b92915050565b6000819050919050565b610aac81610a99565b8114610ab757600080fd5b50565b600081359050610ac981610aa3565b92915050565b600060208284031215610ae557610ae46109da565b5b6000610af384828501610aba565b91505092915050565b60008115159050919050565b610b1181610afc565b82525050565b6000602082019050610b2c6000830184610b08565b92915050565b600080fd5b600080fd5b600080fd5b60008083601f840112610b5757610b56610b32565b5b8235905067ffffffffffffffff811115610b7457610b73610b37565b5b602083019150836001820283011115610b9057610b8f610b3c565b5b9250929050565b600080600080600060808688031215610bb357610bb26109da565b5b6000610bc188828901610a2d565b9550506020610bd288828901610aba565b9450506040610be388828901610aba565b935050606086013567ffffffffffffffff811115610c0457610c036109df565b5b610c1088828901610b41565b92509250509295509295909350565b6000819050919050565b6000610c44610c3f610c3a846109e4565b610c1f565b6109e4565b9050919050565b6000610c5682610c29565b9050919050565b6000610c6882610c4b565b9050919050565b610c7881610c5d565b82525050565b6000602082019050610c936000830184610c6f565b92915050565b600082825260208201905092915050565b7f4e6f6e636520616c72656164792070726f636573736564000000000000000000600082015250565b6000610ce0601783610c99565b9150610ceb82610caa565b602082019050919050565b60006020820190508181036000830152610d0f81610cd3565b9050919050565b60008160601b9050919050565b6000610d2e82610d16565b9050919050565b6000610d4082610d23565b9050919050565b610d58610d5382610a04565b610d35565b82525050565b6000819050919050565b610d79610d7482610a99565b610d5e565b82525050565b6000610d8b8287610d47565b601482019150610d9b8286610d68565b602082019150610dab8285610d68565b602082019150610dbb8284610d47565b60148201915081905095945050505050565b7f496e76616c6964207369676e6174757265000000000000000000000000000000600082015250565b6000610e03601183610c99565b9150610e0e82610dcd565b602082019050919050565b60006020820190508181036000830152610e3281610df6565b9050919050565b610e4281610a99565b82525050565b6000604082019050610e5d6000830185610a6f565b610e6a6020830184610e39565b9392505050565b6000606082019050610e866000830186610a6f565b610e936020830185610e39565b610ea06040830184610e39565b949350505050565b7f4e487b7100000000000000000000000000000000000000000000000000000000600052602160045260246000fd5b6000602082019050610eec6000830184610e39565b92915050565b6000819050919050565b610f0581610ef2565b82525050565b6000602082019050610f206000830184610efc565b92915050565b600060ff82169050919050565b610f3c81610f26565b82525050565b6000608082019050610f576000830187610efc565b610f646020830186610f33565b610f716040830185610efc565b610f7e6060830184610efc565b9594505050505056fea26469706673582212209100cca33c0f9afe525db55a5a894980e14b1143874e3371d13f632757b97ca964736f6c634300081c0033",
  "linkReferences": {},
  "deployedLinkReferences": {}
}