{
  "_format": "hh-sol-artifact-1",
  "contractName": "BridgeA",
  "sourceName": "contracts/BridgeA.sol",
  "abi": [
    {
      "inputs": [
        {
          "internalType": "address",
          "name": "_token",
          "type": "address"
        }
      ],
      "stateMutability": "nonpayable",
      "type": "constructor"
    },
    {
      "inputs": [
        {
          "internalType": "address",
          "name": "owner",
          "type": "address"
        }
      ],
      "name": "OwnableInvalidOwner",
      "type": "error"
    },
    {
      "inputs": [
        {
          "internalType": "address",
          "name": "account",
          "type": "address"
        }
      ],
      "name": "OwnableUnauthorizedAccount",
      "type": "error"
    },
    {
      "anonymous": false,
      "inputs": [
        {
          "indexed": true,
          "internalType": "address",
          "name": "previousOwner",
          "type": "address"
        },
        {
          "indexed": true,
          "internalType": "address",
          "name": "newOwner",
          "type": "address"
        }
      ],
      "name": "OwnershipTransferred",
      "type": "event"
    },
    {
      "anonymous": false,
      "inputs": [
        {
          "indexed": false,
          "internalType": "address",
          "name": "sender",
          "type": "address"
        },
        {
          "indexed": false,
          "internalType": "uint256",
          "name": "amount",
          "type": "uint256"
        },
        {
          "indexed": false,
          "internalType": "address",
          "name": "recipientOnChainB",
          "type": "address"
        },
        {
          "indexed": false,
          "internalType": "uint256",
          "name": "nonce",
          "type": "uint256"
        }
      ],
      "name": "TokensLocked",
      "type": "event"
    },
    {
      "inputs": [
        {
          "internalType": "uint256",
          "name": "amount",
          "type": "uint256"
        },
        {
          "internalType": "address",
          "name": "recipientOnChainB",
          "type": "address"
        }
      ],
      "name": "lockTokens",
      "outputs": [],
      "stateMutability": "nonpayable",
      "type": "function"
    },
    {
      "inputs": [],
      "name": "nonce",
      "outputs": [
        {
          "internalType": "uint256",
          "name": "",
          "type": "uint256"
        }
      ],
      "stateMutability": "view",
      "type": "function"
    },
    {
      "inputs": [],
      "name": "owner",
      "outputs": [
        {
          "internalType": "address",
          "name": "",
          "type": "address"
        }
      ],
      "stateMutability": "view",
      "type": "function"
    },
    {
      "inputs": [],
      "name": "renounceOwnership",
      "outputs": [],
      "stateMutability": "nonpayable",
      "type": "function"
    },
    {
      "inputs": [],
      "name": "token",
      "outputs": [
        {
          "internalType": "contract IERC20",
          "name": "",
          "type": "address"
        }
      ],
      "stateMutability": "view",
      "type": "function"
    },
    {
      "inputs": [
        {
          "internalType": "address",
          "name": "newOwner",
          "type": "address"
        }
      ],
      "name": "transferOwnership",
      "outputs": [],
      "stateMutability": "nonpayable",
      "type": "function"
    },
    {
      "inputs": [
        {
          "internalType": "uint256",
          "name": "amount",
          "type": "uint256"
        }
      ],
      "name": "withdrawTokens",
      "outputs": [],
      "stateMutability": "nonpayable",
      "type": "function"
    }
  ],
  "bytecode": "0x608060405234801561001057600080fd5b50604051610ccc380380610ccc83398181016040528101906100329190610223565b33600073ffffffffffffffffffffffffffffffffffffffff168173ffffffffffffffffffffffffffffffffffffffff16036100a55760006040517f1e4fbdf700000000000000000000000000000000000000000000000000000000815260040161009c919061025f565b60405180910390fd5b6100b4816100fc60201b60201c565b5080600160006101000a81548173ffffffffffffffffffffffffffffffffffffffff021916908373ffffffffffffffffffffffffffffffffffffffff1602179055505061027a565b60008060009054906101000a900473ffffffffffffffffffffffffffffffffffffffff169050816000806101000a81548173ffffffffffffffffffffffffffffffffffffffff021916908373ffffffffffffffffffffffffffffffffffffffff1602179055508173ffffffffffffffffffffffffffffffffffffffff168173ffffffffffffffffffffffffffffffffffffffff167f8be0079c531659141344cd1fd0a4f28419497f9722a3daafe3b4186f6b6457e060405160405180910390a35050565b600080fd5b600073ffffffffffffffffffffffffffffffffffffffff82169050919050565b60006101f0826101c5565b9050919050565b610200816101e5565b811461020b57600080fd5b50565b60008151905061021d816101f7565b92915050565b600060208284031215610239576102386101c0565b5b60006102478482850161020e565b91505092915050565b610259816101e5565b82525050565b60006020820190506102746000830184610250565b92915050565b610a43806102896000396000f3fe608060405234801561001057600080fd5b506004361061007d5760003560e01c8063aa68acde1161005b578063aa68acde146100c6578063affed0e0146100e2578063f2fde38b14610100578063fc0c546a1461011c5761007d565b8063315a095d14610082578063715018a61461009e5780638da5cb5b146100a8575b600080fd5b61009c600480360381019061009791906105dd565b61013a565b005b6100a6610224565b005b6100b0610238565b6040516100bd919061064b565b60405180910390f35b6100e060048036038101906100db9190610692565b610261565b005b6100ea61039d565b6040516100f791906106e1565b60405180910390f35b61011a600480360381019061011591906106fc565b6103a3565b005b610124610429565b6040516101319190610788565b60405180910390f35b61014261044f565b600160009054906101000a900473ffffffffffffffffffffffffffffffffffffffff1673ffffffffffffffffffffffffffffffffffffffff1663a9059cbb33836040518363ffffffff1660e01b815260040161019f9291906107a3565b6020604051808303816000875af11580156101be573d6000803e3d6000fd5b505050506040513d601f19601f820116820180604052508101906101e29190610804565b610221576040517f08c379a00000000000000000000000000000000000000000000000000000000081526004016102189061088e565b60405180910390fd5b50565b61022c61044f565b61023660006104d6565b565b60008060009054906101000a900473ffffffffffffffffffffffffffffffffffffffff16905090565b600160009054906101000a900473ffffffffffffffffffffffffffffffffffffffff1673ffffffffffffffffffffffffffffffffffffffff166323b872dd3330856040518463ffffffff1660e01b81526004016102c0939291906108ae565b6020604051808303816000875af11580156102df573d6000803e3d6000fd5b505050506040513d601f19601f820116820180604052508101906103039190610804565b610342576040517f08c379a000000000000000000000000000000000000000000000000000000000815260040161033990610931565b60405180910390fd5b7fed8dc60e31617cbf8d6296aee5487dcc9582b297da64a0b25c6d7ab2840dfd0e3383836002546040516103799493929190610951565b60405180910390a160026000815480929190610394906109c5565b91905055505050565b60025481565b6103ab61044f565b600073ffffffffffffffffffffffffffffffffffffffff168173ffffffffffffffffffffffffffffffffffffffff160361041d5760006040517f1e4fbdf7000000000000000000000000000000000000000000000000000000008152600401610414919061064b565b60405180910390fd5b610426816104d6565b50565b600160009054906101000a900473ffffffffffffffffffffffffffffffffffffffff1681565b61045761059a565b73ffffffffffffffffffffffffffffffffffffffff16610475610238565b73ffffffffffffffffffffffffffffffffffffffff16146104d45761049861059a565b6040517f118cdaa70000000000000000000000000000000000000000000000000000000081526004016104cb919061064b565b60405180910390fd5b565b60008060009054906101000a900473ffffffffffffffffffffffffffffffffffffffff169050816000806101000a81548173ffffffffffffffffffffffffffffffffffffffff021916908373ffffffffffffffffffffffffffffffffffffffff1602179055508173ffffffffffffffffffffffffffffffffffffffff168173ffffffffffffffffffffffffffffffffffffffff167f8be0079c531659141344cd1fd0a4f28419497f9722a3daafe3b4186f6b6457e060405160405180910390a35050565b600033905090565b600080fd5b6000819050919050565b6105ba816105a7565b81146105c557600080fd5b50565b6000813590506105d7816105b1565b92915050565b6000602082840312156105f3576105f26105a2565b5b6000610601848285016105c8565b91505092915050565b600073ffffffffffffffffffffffffffffffffffffffff82169050919050565b60006106358261060a565b9050919050565b6106458161062a565b82525050565b6000602082019050610660600083018461063c565b92915050565b61066f8161062a565b811461067a57600080fd5b50565b60008135905061068c81610666565b92915050565b600080604083850312156106a9576106a86105a2565b5b60006106b7858286016105c8565b92505060206106c88582860161067d565b9150509250929050565b6106db816105a7565b82525050565b60006020820190506106f660008301846106d2565b92915050565b600060208284031215610712576107116105a2565b5b60006107208482850161067d565b91505092915050565b6000819050919050565b600061074e6107496107448461060a565b610729565b61060a565b9050919050565b600061076082610733565b9050919050565b600061077282610755565b9050919050565b61078281610767565b82525050565b600060208201905061079d6000830184610779565b92915050565b60006040820190506107b8600083018561063c565b6107c560208301846106d2565b9392505050565b60008115159050919050565b6107e1816107cc565b81146107ec57600080fd5b50565b6000815190506107fe816107d8565b92915050565b60006020828403121561081a576108196105a2565b5b6000610828848285016107ef565b91505092915050565b600082825260208201905092915050565b7f5769746864726177206661696c65640000000000000000000000000000000000600082015250565b6000610878600f83610831565b915061088382610842565b602082019050919050565b600060208201905081810360008301526108a78161086b565b9050919050565b60006060820190506108c3600083018661063c565b6108d0602083018561063c565b6108dd60408301846106d2565b949350505050565b7f5472616e73666572206661696c65640000000000000000000000000000000000600082015250565b600061091b600f83610831565b9150610926826108e5565b602082019050919050565b6000602082019050818103600083015261094a8161090e565b9050919050565b6000608082019050610966600083018761063c565b61097360208301866106d2565b610980604083018561063c565b61098d60608301846106d2565b95945050505050565b7f4e487b7100000000000000000000000000000000000000000000000000000000600052601160045260246000fd5b60006109d0826105a7565b91507fffffffffffffffffffffffffffffffffffffffffffffffffffffffffffffffff8203610a0257610a01610996565b5b60018201905091905056fea2646970667358221220d43faf19f2d85ca9c1277c77aff28dea345b67bca4c44ee3f5c97cd0ba7abd0c64736f6c634300081c0033",
  "linkReferences": {},
  "deployedLinkReferences": {}
}